:020000040000FA
:100000000C946D000C9495000C9495000C94950044
:100010000C9495000C9495000C9495000C9495000C
:100020000C9495000C9495000C9495000C949500FC
:100030000C9495000C9495000C9495000C949500EC
:100040000C9408070C9495000C9495000C94950062
:100050000C9495000C9495000C9495000C949500CC
:100060000C9452070C94950031303A32393A3436B8
:10007000004E6F76203133203230323500000000E0
:1000800000240027002A0000000000250028002B83
:1000900000000000002300260029000404040404DA
:1000A0000404040202020202020303030303030125
:1000B00002040810204080010204081020010204FC
:1000C00008102000000008000201000003040700DF
:1000D00000000000000000007E0811241FBECFEFCA
:1000E000D8E0DEBFCDBF22E0A0E9B1E001C01D92A3
:1000F000A538B207E1F711E0A0E0B1E0E2E1FDE1EF
:1001000002C005900D92A039B107D9F710E0CDE6F5
:10011000D0E004C02197FE010E94480DCC36D107E3
:10012000C9F70E949F080C94870E0C940000089554
:100130000895833081F028F4813099F08230A9F05D
:1001400008958730A9F08830C9F08430B1F48091E7
:1001500080008F7D03C0809180008F778093800026
:10016000089584B58F7784BD089584B58F7DFBCFC6
:100170008091B0008F778093B00008958091B00097
:100180008F7DF9CFCF93DF93282F30E0F901ED5326
:10019000FF4F8491F901E155FF4FD491F901E556E4
:1001A000FF4FC491CC23A1F081110E949900EC2F44
:1001B000F0E0EE0FFF1FEF56FF4FA591B491EC91C9
:1001C000ED2381E090E009F480E0DF91CF91089584
:1001D00080E090E0FACF1F93CF93DF93282F30E099
:1001E000F901ED53FF4F8491F901E155FF4FD4918F
:1001F000F901E556FF4FC491CC23A9F0162F8111C8
:100200000E949900EC2FF0E0EE0FFF1FE957FF4F1F
:10021000A591B4918FB7F894EC91111108C0D095C5
:10022000DE23DC938FBFDF91CF911F910895DE2BEA
:10023000F8CFCF93DF9390E0FC01E155FF4F24917D
:1002400085569F4FFC0184918823D1F090E0880F60
:10025000991FFC01E358FF4FA591B491FC01E957A8
:10026000FF4FC591D491623071F49FB7F8943C91DF
:10027000822F809583238C93E8812E2B28839FBF28
:10028000DF91CF9108958FB7F894EC912E2B2C939A
:100290008FBFF6CF3FB7F8948091EC019091ED01BC
:1002A000A091EE01B091EF0126B5A89B05C02F3FAC
:1002B00019F00196A11DB11D3FBFBA2FA92F982F8C
:1002C0008827BC01CD01620F711D811D911D42E087
:1002D000660F771F881F991F4A95D1F708958F924F
:1002E0009F92AF92BF92CF92DF92EF92FF924B011B
:1002F0005C010E944A016B017C010E944A016C1959
:100300007D098E099F09683E734081059105A8F318
:1003100021E0821A9108A108B10888EEC80E83E096
:10032000D81EE11CF11C81149104A104B10429F729
:10033000FF90EF90DF90CF90BF90AF909F908F9005
:1003400008952FB7F8946091E8017091E9018091C8
:10035000EA019091EB012FBF0895AF92BF92CF9227
:10036000DF92EF92FF920F931F93CF93DF936C0175
:100370007B018B01040F151FEB015E01AE18BF0856
:10038000C017D10759F06991D601ED91FC91019008
:10039000F081E02DC6010995892B79F7C501DF9120
:1003A000CF911F910F91FF90EF90DF90CF90BF9072
:1003B000AF90089508952091B101260F3327331F80
:1003C00021323105ECF420913E02FC0190E080E006
:1003D000243069F082E00895A091B1012191AC012F
:1003E0004F565E4FA40FB52FB11D2C930196861763
:1003F00098F38091B101680F6093B10180E0089596
:1004000081E0089510923E0281E080933D021092B7
:10041000180261E082E10E94EB0061E083E10E944A
:10042000EB00E9EBF0E080818E7F808380818D7F1F
:10043000808388E48093B80085E48093BC000895AD
:100440001092F7011092F601109245021092670285
:100450000E94020287E990E09093F3018093F201F9
:1004600088E990E09093F1018093F0010895CF9393
:10047000DF9391E0909390018823B9F0C091B80088
:10048000D091BA008091BC008A7B8093BC0060E070
:1004900082E10E94EB0060E083E10E94EB000E9499
:1004A0000202D093BA00C093B800DF91CF910895B3
:1004B0008F929F92AF92BF92CF92DF92EF92FF9274
:1004C0000F931F93CF93DF93D0916702D13208F03F
:1004D000D7C0182FC09166020E944A016B017C01AF
:1004E00080913E0281116BC082E080933E021093A6
:1004F0003D028FEF80933C0210923B02D0933A0270
:10050000A6E4B2E0EAE1F2E080E0D81391C01092F4
:10051000190280911902CC0FC82BC0931902809147
:100520001802813009F088C0109218020E944A0116
:100530006B017C01809119028093BB008091400285
:1005400090914102A0914202B0914302892B8A2BE3
:100550008B2BA1F00E944A010091400210914102B0
:1005600020914202309143026C197D098E099F0946
:10057000061717072807390708F442C08091BC0006
:1005800083FDD8CF85EC8093BC000E944A016B01AB
:100590007C0180913E02823009F450C080913C027F
:1005A0008F3F09F46FC080913C02803209F46CC027
:1005B00080913C02803309F469C084E026C08091B8
:1005C000400290914102A0914202B0914302892BD6
:1005D0008A2B8B2B09F484CF0E944A018090400221
:1005E00090904102A0904202B09043026C197D09A4
:1005F0008E099F0986169706A806B90608F070CFDF
:1006000080913F020E94370285E0109245021092CD
:10061000670210924402DF91CF911F910F91FF90DA
:10062000EF90DF90CF90BF90AF909F908F90089504
:100630009D9191938F5F69CF85EEA5CF8091400208
:1006400090914102A0914202B0914302892B8A2BE2
:100650008B2B09F49ECF0E944A0100914002109119
:10066000410220914202309143026C197D098E09AA
:100670009F09061717072807390708F08ACFC0CF48
:1006800081E0C3CF80E0C1CF82E0BFCF83E0BDCFA8
:100690001F93CF93DF93EA01122FDC0111968D9106
:1006A0009C91DC01ED91FC910280F381E02D099594
:1006B000C817D90729F4812F0E94580291E08111AF
:1006C00090E0892FDF91CF911F910895CF93DF9311
:1006D000EC018B818823A1F0888191E09093440202
:1006E00080936602109245021092670281E00E9498
:1006F000580291E0811190E0892FDF91CF91089508
:100700000E94200281E08B83CE010E946603982F15
:100710008111E2CFF1CF0895E091F7018091F601C8
:10072000E81730F4F0E0E850FE4F808190E0089543
:100730008FEF9FEF08959091F7018091F6012FEFD1
:100740003FEF981748F4E92FF0E0E850FE4F208182
:1007500030E09F5F9093F701C90108958091F60101
:100760009091F701891B990B0895CF92DF92EF9238
:10077000FF920F931F93CF93DF937C01CB018A01EC
:1007800020914402222389F0EB016B01C40ED51E97
:10079000CC15DD0569F06991D701ED91FC910190CF
:1007A000F081E02DC7010995F3CF642F0E94DB0192
:1007B000C801DF91CF911F910F91FF90EF90DF90D3
:1007C000CF900895CF93DF931F92CDB7DEB76983A3
:1007D000209144022223F9F020916702203258F040
:1007E00021E030E0FC013383228390E080E00F9031
:1007F000DF91CF91089580914502E82FF0E0EA5B08
:10080000FD4F998190838F5F8093450280936702AB
:1008100081E090E0ECCF61E0CE0101960E94DB0127
:10082000F7CFFC01248131E030934402209366022B
:1008300010924502109267028485682B88E692E048
:100840000E94E20381E00C94580290E080E0089559
:100850002F923F924F925F926F927F928F929F92D0
:10086000AF92BF92CF92DF92EF92FF920F931F93BE
:10087000CF93DF935C011B016A01F12CE12CD501C0
:1008800014968D919C9186010E191F09801791076E
:1008900008F48C01F501D0810E944A012B013C0132
:1008A00080913E02811172C0C02F013208F0C0E277
:1008B000F1E0F0933E0221E0C601801B910BE816A7
:1008C000F90608F420E020933D028FEF80933C026C
:1008D00010923B028C0F80933A02A1E0A093190280
:1008E00080911902DD0FD82BD09319028091180244
:1008F000813009F090C0109218020E944A012B0129
:100900003C01809119028093BB008091400290913C
:100910004102A0914202B0914302892B8A2B8B2B7A
:10092000A1F00E944A012091400230914102409181
:1009300042025091430264197509860997092617E6
:1009400037074807590708F442C08091BC0083FD6F
:10095000D8CFB5ECB093BC000E944A012B013C01FA
:1009600080913E02813009F45AC080913B028C177D
:1009700010F4C0913B02AAE1B2E0E8EFF1E080E0C0
:100980008C1751F19D9191938F5FFACF8091400226
:1009900090914102A0914202B0914302892B8A2B8F
:1009A0008B2B09F47DCF0E944A01209140023091A7
:1009B000410240914202509143026419750986092F
:1009C0009709261737074807590708F069CF80911C
:1009D0003F020E943702C0E01092F701C093F60177
:1009E000C017110609F057C041018E0C9F1CE4018D
:1009F000CE01881999098017910798F5D5011196AC
:100A00008D919C91DC01ED91FC910284F385E02DA8
:100A100009958993EDCFE5EEE093BC009DCF8091E1
:100A2000400290914102A0914202B0914302892B71
:100A30008A2B8B2B09F494CF0E944A01209140020B
:100A4000309141024091420250914302641975096C
:100A500086099709261737074807590708F080CFF6
:100A6000B6CFE00EF11EEC14FD0408F408CF81E0CF
:100A7000DF91CF911F910F91FF90EF90DF90CF907A
:100A8000BF90AF909F908F907F906F905F904F90AE
:100A90003F902F90089580E0EBCFEF92FF920F935D
:100AA0001F93CF93DF9300D000D000D01F92CDB71B
:100AB000DEB78C011982E090F401F090F501D701C6
:100AC00014968D919C911597892BE9F08C9191E06A
:100AD000909344028093660210924502109267023E
:100AE00020E041E050E0BE016F5F7F4FC7010E94F0
:100AF0004803882341F047E050E0BE016F5F7F4F1D
:100B0000C7010E942804E981EF77FA81FB804D81BB
:100B10005E818F81282F30E094E0359527959A9556
:100B2000E1F7922F990F990F291B220F280FD80157
:100B30002C93852F90E024E0959587952A95E1F7F1
:100B4000982F990F990F891B880F850F11968C93F9
:100B50001197642F70E034E0759567953A95E1F749
:100B6000862F880F880F681B660F640F12966C9390
:100B700012974F2D50E064E0559547956A95E1F73F
:100B8000842F880F880F481B440F4F0D13964C93EA
:100B900013972F2F30E074E0359527957A95E1F77C
:100BA000822F880F880F281B220F2F0F14962C934B
:100BB00014978E2F90E0F4E095958795FA95E1F7DC
:100BC000982F990F990F891B880F8E0F15968C936C
:100BD000C80127960FB6F894DEBF0FBECDBFDF91D8
:100BE000CF911F910F91FF90EF9008950F931F9356
:100BF000CF938C01C62F0E9411046C2F6460C80132
:100C00000E9411046C2F6B7FC8010E94110483ECB9
:100C100090E00197F1F7CF911F910F9108950F93F5
:100C20001F93CF93DF938C01D62FC42F607F642B4B
:100C30000E94F60580E1D89FB00111246C2BC801F9
:100C4000DF91CF911F910F910C94F605CF93DF9315
:100C5000CDB7DEB728970FB6F894DEBF0FBECDBF75
:100C600098E0ECE0F1E0DE01119601900D929A958A
:100C7000E1F790917C02981708F48FEF90E0880FCD
:100C8000991F21E030E02C0F3D1F820F931FFC01C4
:100C90006081606840E084E792E028960FB6F8949F
:100CA000DEBF0FBECDBFDF91CF910C940F0640E0A9
:100CB00061E084E792E00E940F068BE39FE10197D9
:100CC000F1F780917D02882319F080E00C942606CC
:100CD000089541E00E940F0681E090E0089541E010
:100CE000682F84E792E00E940F0681E090E008956B
:100CF000CF92DF92EF92FF920F931F93CF93DF93E8
:100D0000CDB7DEB7A1970FB6F894DEBF0FBECDBF4B
:100D1000282F30E050E040E019A28E010F5D1F4FF8
:100D20008AE0C82ED12CE12CF12CCA01B901A7010F
:100D300096010E94260D605DF80162938F012115D6
:100D400031054105510589F790E080E0309761F069
:100D500001900020E9F73197AF01401B510BB8011A
:100D600084E792E00E94AD01A1960FB6F894DEBF31
:100D70000FBECDBFDF91CF911F910F91FF90EF90EC
:100D8000DF90CF900895FC0101900020E9F73197A2
:100D9000AF01481B590BBC0184E792E00C94AD01F4
:100DA00085ED8093BC008091400290914102A0911A
:100DB0004202B09143020796A11DB11D23E0B695F2
:100DC000A795979587952A95D1F72091BC0024FD8A
:100DD00003C010923E02089540914002509141029A
:100DE0006091420270914302452B462B472B69F3D9
:100DF0000097A105B10541F02AE22A95F1F700C05C
:100E00000197A109B109E1CF80913F020C9437020B
:100E10001F920F920FB60F9211242F933F938F932F
:100E20009F93AF93BF938091E8019091E901A091C6
:100E3000EA01B091EB013091E70123E0230F2D3758
:100E400058F50196A11DB11D2093E7018093E8019B
:100E50009093E901A093EA01B093EB018091EC013A
:100E60009091ED01A091EE01B091EF010196A11DCD
:100E7000B11D8093EC019093ED01A093EE01B0932E
:100E8000EF01BF91AF919F918F913F912F910F9063
:100E90000FBE0F901F90189526E8230F0296A11DF4
:100EA000B11DD2CF1F920F920FB60F9211242F9324
:100EB0003F934F935F936F937F938F939F93AF93E2
:100EC000BF93EF93FF938091B900887F803609F438
:100ED0004AC0F0F5883209F4A7C018F5803109F44A
:100EE0009BC0B8F4882309F4F9C0883009F494C091
:100EF000FF91EF91BF91AF919F918F917F916F91F2
:100F00005F914F913F912F910F900FBE0F901F90C7
:100F10001895883109F488C0803251F780933C02DB
:100F200014C0803409F49DC040F48033B9F3883391
:100F3000F9F680933C0285ECB0C0803509F485C099
:100F4000883509F496C0883499F60E94D006D0CF2F
:100F5000883909F48CC038F5883729F050F4883680
:100F600011F0803729F683E080933E021092D3017E
:100F700057C0883809F47BC0803919F0803809F0EF
:100F8000B7CF8091D301803208F071C0E091D301D6
:100F900081E08E0F8093D3018091BB00F0E0ED548F
:100FA000FE4F80833DC0803B39F0E0F4803A09F485
:100FB00079C0883A09F09CCF84E080933E02109279
:100FC000B2011092B101E091F201F091F3010995A3
:100FD0008091B10181110FC081E08093B101109225
:100FE000910109C0803C09F4A6CF883C09F4A3CF45
:100FF000883B09F07DCFE091B20181E08E0F8093B4
:10100000B201F0E0EF56FE4F80818093BB009091DB
:10101000B2018091B10129C0809119028093BB0077
:1010200085EC8093BC0064CF90913B0280913A02A2
:10103000981758F5E0913B0281E08E0F80933B02B8
:10104000F0E0E65EFD4F8081E9CFE0913B0281E078
:101050008E0F80933B028091BB00F0E0E65EFD4F77
:10106000808390913B0280913A029817C8F285E8FC
:10107000D8CFE0913B0281E08E0F80933B028091BC
:10108000BB00F0E0E65EFD4F808380913D02811160
:101090005CCF81E08093180284EA8093BC001092B8
:1010A0003E0226CF85EC8093BC0010923E028091D8
:1010B000D301803230F4E091D301F0E0ED54FE4FE3
:1010C00010826091D30170E0E091F001F091F101A4
:1010D00083EB91E009951092D3010ACF10923C0264
:1010E00034CFFC01908190539A3008F090E08181D8
:1010F00080532AE0929F800D11240895E8E6F2E0E3
:101100001382128288EE93E0A0E0B0E0848395839E
:10111000A683B78388E191E091838083E4E7F2E0DE
:10112000138212828AE291E091838083118687E2A2
:10113000848380E1828782E0838714860895CF9339
:10114000DF93CDB7DEB72C970FB6F894DEBF0FBE96
:10115000CDBF789484B5826084BD84B5816084BD40
:1011600085B5826085BD85B5816085BD80916E0045
:10117000816080936E001092810080918100826076
:1011800080938100809181008160809381008091B3
:1011900080008160809380008091B10084608093A2
:1011A000B1008091B00081608093B00080917A009E
:1011B000846080937A0080917A00826080937A00C4
:1011C00080917A00816080937A0080917A008068B3
:1011D00080937A001092C1000E942002109279023E
:1011E00080917F02823018F098E09093790280938A
:1011F0007C0262E370E080E090E00E946F01609109
:10120000800284E792E00E94110468EE73E080E0BF
:1012100090E00E946F0160E384E792E00E94F6058F
:101220000BE416E4C8010197F1F760E384E792E06C
:101230000E94F605C8010197F1F760E384E792E0A8
:101240000E94F60583E592E00197F1F760E284E7FA
:1012500092E00E94F60560917902606240E084E7C6
:1012600092E00E940F0684E080937A0240E06CE0F6
:1012700084E792E00E940F060E94570682E0809366
:101280007B0240E066E084E792E00E940F0640E0C7
:1012900062E084E792E00E940F068BE39FE10197F2
:1012A000F1F788E08093800260E084E792E00E949A
:1012B000110480E00E9426068091F4019091F501CE
:1012C000009711F00E94FE0D86E090E00E94620DF2
:1012D0008C0188E6F801808388E692E0928381831E
:1012E000138280E290E0958384831093F50100934C
:1012F000F4010E942002EE24E394F801E382C80185
:101300000E946603811105C08CE391E00E94C30630
:10131000FFCF1C868091F4019091F501FC0124819E
:101320003581232B89F02081E092440220936602CC
:10133000109245021092670221E041E050E0BE01A8
:10134000645F7F4F0E94480341E050E08E010F5FD1
:101350001F4FB8018091F4019091F5010E9428047B
:10136000898190E0880F892F881F990B892B09F4B8
:10137000B3C00E9457068BE491E00E94C3064BE085
:1013800050E061E770E0C8010E94FD0CCE010A96B2
:101390000E947108E82EE981E154E33130F50E2E08
:1013A000000CFF0BEA52F64F0C94480D060BF509A2
:1013B000F509210BF509240BF509F509F509E909EA
:1013C000F509F5090F0B1E0B1B0BF509F509F509BE
:1013D000180B8A81FF24F394813639F08B81A6E0C3
:1013E000FA2E8E3611F0F7E0FF2ECE0105960E9400
:1013F0007108D82E48E050E068E670E0C8010E940D
:10140000FD0CC8010E947108C82ECE0104960E94EE
:101410007108B82ECE0107960E947108382F86E019
:10142000F80111928A95E9F72AE0832F622F0E9432
:10143000060D982F880F890F880F830F8A838B2DB5
:101440000E94060D982F880F890F880F8B0D8B83B4
:101450008C2D0E94060D982F880F890F880F8C0DF8
:101460008C838D2D0E94060D982F880F890F880F71
:101470008D0D8E838F2D0E94060D982F990F890F49
:10148000880FF80EFF828E2D0E94060D982F880F70
:10149000890F880F8E0D88878091F4019091F50156
:1014A000FC01248135812830310580F0208131E034
:1014B0003093440220936602109245021092670214
:1014C00021E048E050E0B8010E94480360ED77E079
:1014D00080E090E00E946F0161E08CE00E941901C1
:1014E00060E08CE00E94EB0062E08BE00E9419015A
:1014F00062E08AE00E94190162E089E00E9419011D
:1015000062E088E00E9419010E9457060E94A10132
:10151000C090D901D090DA01E090DB01F090DC01BD
:101520006C157D058E059F0508F091C08AE00E942C
:10153000C20021E0892B09F020E02093020189E01C
:101540000E94C20021E0892B09F020E020930101D4
:1015500088E00E94C20021E0892B09F020E020935E
:1015600000018091DD01882309F47BC161E08CE0FA
:101570000E94EB000E94A101C090E301D090E40121
:10158000E090E501F090E6016C197D098E099F0954
:10159000653F71408105910580F08091E201F1E0A5
:1015A0008F278093E2010E94A1016093E301709371
:1015B000E4018093E5019093E601E090E001F09072
:1015C000E1018091040190910501E816F90631F0DE
:1015D0000E945706F0920501E0920401C8010E94A2
:1015E0004D058091E0019091E1018130910509F470
:1015F000ACC108F456C1029709F4D2C180E090E072
:10160000892B09F483CF0E94000080CF8B81E4E016
:10161000FE2E823709F4E9CE78E0F72EE6CE8B81F4
:1016200063E0F62E823709F4E0CE55E0F52EDDCEEC
:1016300049E0F42EDACE3AE0F32ED7CE2BE0F22EAC
:10164000D4CE9CE0F92ED1CE82E0F82ECECE5090B2
:10165000DD016090E0017090E1018BE00E94C2002A
:101660004C018AE00E94C2005C0189E00E94C20035
:101670006C0188E00E94C2007C01552001F189289C
:1016800049F0A114B10431F0C114D10419F0892B2F
:1016900009F09EC01092DD0160E08CE00E94EB003A
:1016A0000E94A1016C507E4F8F4F9F4F6093D901D4
:1016B0007093DA018093DB019093DC0152CF89288B
:1016C00009F086C02090D5013090D6014090D70116
:1016D0005090D801211431044104510409F05CC038
:1016E0000E94A1016093D5017093D6018093D70128
:1016F0009093D8011092D4012091E0013091E10142
:10170000A114B10491F48091020181110EC0213025
:10171000310509F07EC08091030190E0019668E1F7
:1017200070E00E94120D80930301C114D10481F472
:101730008091010181110CC02130310509F07AC07E
:1017400080910301882309F473C0815080930301C1
:10175000E114F10471F48091000181110AC021307B
:10176000310509F075C082E090E09093E10180932B
:10177000E00181E0AB2809F080E08093020181E084
:10178000CD2809F080E08093010181E0EF2809F085
:1017900080E080930001E5CE8091D4018111ACCF2F
:1017A0000E94A1016219730984099509613D77407E
:1017B0008105910508F4A0CF672831F48091DE01FE
:1017C00021E082278093DE0181E08093D40194CFD1
:1017D0008091D5019091D601A091D701B091D80107
:1017E000892B8A2B8B2B61F08091D401811108C049
:1017F000672831F4E1E0F0E0F093E101E093E001EB
:101800001092D5011092D6011092D7011092D801F2
:1018100073CF2230310509F088CF8091DF0190E04D
:1018200001966CE370E00E94120D8093DF017DCF82
:1018300087E18CCF2230310509F08ACF8091DF011A
:10184000882321F081508093DF0182CF8BE3FBCF8F
:101850002230310509F08DCF1092E1011092E001A4
:1018600088CF8091DE01882309F484CE8091E00145
:101870009091E101892B09F07DCEC8010E944D05B0
:101880009C8180910301981375CE9D818091DF0129
:10189000981370CE8E8181116DCE91E09093DD0111
:1018A00069CE80E00E94260689E591E00E94C30689
:1018B0008C818A3018F480E30E946F068C810E942C
:1018C00078068AE30E946F068D818A3018F480E3DF
:1018D0000E946F068D810E9478068AE30E946F063F
:1018E0008E818A3018F480E30E946F068E810E94F8
:1018F000780681E00E94260680E691E00E94C306F9
:10190000F090030129E02F1518F080E30E946F0684
:101910008F2D0E9478068AE30E946F06F090DF0107
:1019200089E08F1518F080E30E946F068F2D0E94CA
:1019300078068091DE01882329F082E391E00E94FD
:10194000C3065CCE87E391E0FACF80E00E942606D2
:1019500088E691E00E94C30681E00E9426068091FD
:10196000E201882389F08FE791E00E94C30687E7B0
:1019700091E00E94C306F090DF01E9E0EF15C8F1A5
:1019800080E30E946F0635C0F090030199E09F1537
:1019900018F080E30E946F068F2D0E947806E7CF33
:1019A00080E00E94260682E891E00E94C30681E062
:1019B0000E942606F0900301F9E0FF1518F080E37D
:1019C0000E946F068F2D0E94780687E791E00E94A3
:1019D000C3068091E201882339F08FE791E00E94ED
:1019E000C30689E791E0ABCFF090DF0129E02F1526
:1019F00038F68F2D0E947806F4CFFB01DC0102C07F
:101A000005900D9241505040D8F70895991B79E008
:101A100004C0991F961708F0961B881F7A95C9F77E
:101A20008095089597FB072E16F4009407D077FD54
:101A300009D00E944E0D07FC05D03EF4909581958B
:101A40009F4F0895709561957F4F0895A1E21A2EDA
:101A5000AA1BBB1BFD010DC0AA1FBB1FEE1FFF1F52
:101A6000A217B307E407F50720F0A21BB30BE40BA2
:101A7000F50B661F771F881F991F1A9469F76095E9
:101A80007095809590959B01AC01BD01CF010895A3
:101A9000EE0FFF1F0590F491E02D0994AA1BBB1BCC
:101AA00051E107C0AA1FBB1FA617B70710F0A61B5E
:101AB000B70B881F991F5A95A9F780959095BC017F
:101AC000CD0108950F931F93CF93DF93823091053B
:101AD00010F482E090E0E0918302F091840230E023
:101AE00020E0B0E0A0E0309799F42115310509F429
:101AF0004AC0281B390B24303105D8F58A819B81D7
:101B00006115710589F1FB0193838283FE0111C088
:101B1000408151810281138148175907E0F048172D
:101B2000590799F4109761F012960C931297139637
:101B30001C933296CF01DF91CF911F910F910895A1
:101B40000093830210938402F4CF2115310551F0E4
:101B50004217530738F0A901DB019A01BD01DF01EB
:101B6000F801C1CFEF01F9CF9093840280938302F3
:101B7000CDCFFE01E20FF31F8193919322503109E3
:101B800039832883D7CF2091810230918202232B81
:101B900041F4209108013091090130938202209391
:101BA000810220910601309107012115310541F490
:101BB0002DB73EB740910A0150910B01241B350B04
:101BC000E0918102F0918202E217F307A0F42E1B4C
:101BD0003F0B2817390778F0AC014E5F5F4F241791
:101BE000350748F04E0F5F1F5093820240938102E9
:101BF000819391939FCFF0E0E0E09CCFCF93DF9370
:101C00000097E9F0FC01329713821282A0918302BF
:101C1000B0918402ED0130E020E01097A1F4208122
:101C20003181820F931F2091810230918202281707
:101C3000390709F061C0F0938202E0938102DF91DD
:101C4000CF910895EA01CE17DF07E8F54A815B815D
:101C50009E0141155105B1F7E901FB83EA834991E2
:101C60005991C40FD51FEC17FD0761F48081918154
:101C70000296840F951FE90199838883828193815D
:101C80009B838A83F0E0E0E012968D919C911397FC
:101C90000097B9F52D913C911197CD010296820FD5
:101CA000931F20918102309182022817390739F65B
:101CB000309751F51092840210928302B093820201
:101CC000A0938102BCCFD383C28340815181840F12
:101CD000951FC817D90761F44E5F5F4F88819981BE
:101CE000480F591F518340838A819B81938382834C
:101CF0002115310509F0B0CFF0938402E0938302FF
:101D00009ECFFD01DC01C0CF13821282D7CFF894A1
:101D1000FFCF01010106FFFF0000850280000000E7
:101D200040001400540000000000E203B503250445
:101D30008B03AE039B038C03000000006906AD011A
:101D40002504DA01204F4E2000204F464600525411
:101D500043206E6F7420666F756E64210052544389
:101D60002061646A7573742E2E2E0054696D653A75
:101D70002000416C61726D3A200053657420416C03
:101D800061726D20486F7572003A0020202020207B
:101D90002020200053657420416C61726D204D69D4
:021DA0006E00D3
:107E0000112484B714BE81FFF0D085E080938100F7
:107E100082E08093C00088E18093C10086E0809377
:107E2000C20080E18093C4008EE0C9D0259A86E02C
:107E300020E33CEF91E0309385002093840096BBD3
:107E4000B09BFECF1D9AA8958150A9F7CC24DD24C4
:107E500088248394B5E0AB2EA1E19A2EF3E0BF2EE7
:107E6000A2D0813461F49FD0082FAFD0023811F036
:107E7000013811F484E001C083E08DD089C08234E0
:107E800011F484E103C0853419F485E0A6D080C0E4
:107E9000853579F488D0E82EFF2485D0082F10E0AE
:107EA000102F00270E291F29000F111F8ED06801E7
:107EB0006FC0863521F484E090D080E0DECF843638
:107EC00009F040C070D06FD0082F6DD080E0C81688
:107ED00080E7D80618F4F601B7BEE895C0E0D1E017
:107EE00062D089930C17E1F7F0E0CF16F0E7DF06D8
:107EF00018F0F601B7BEE89568D007B600FCFDCFD4
:107F0000A601A0E0B1E02C9130E011968C91119780
:107F100090E0982F8827822B932B1296FA010C0160
:107F200087BEE89511244E5F5F4FF1E0A038BF0790
:107F300051F7F601A7BEE89507B600FCFDCF97BE46
:107F4000E89526C08437B1F42ED02DD0F82E2BD052
:107F50003CD0F601EF2C8F010F5F1F4F84911BD097
:107F6000EA94F801C1F70894C11CD11CFA94CF0C13
:107F7000D11C0EC0853739F428D08EE10CD085E9AC
:107F80000AD08FE07ACF813511F488E018D01DD067
:107F900080E101D065CF982F8091C00085FFFCCF94
:107FA0009093C60008958091C00087FFFCCF809118
:107FB000C00084FD01C0A8958091C6000895E0E648
:107FC000F0E098E1908380830895EDDF803219F02E
:107FD00088E0F5DFFFCF84E1DECF1F93182FE3DFCA
:107FE0001150E9F7F2DF1F91089580E0E8DFEE27F6
:047FF000FF270994CA
:027FFE00040479
:00000001FF
